{
    "_format": "hh-sol-artifact-1",
    "contractName": "Todo",
    "sourceName": "contracts/Todo.sol",
    "abi": [
        {
            "inputs": [
                {
                    "internalType": "string",
                    "name": "_task",
                    "type": "string"
                }
            ],
            "name": "createTask",
            "outputs": [],
            "stateMutability": "nonpayable",
            "type": "function"
        },
        {
            "inputs": [
                {
                    "internalType": "uint256",
                    "name": "_taskIndex",
                    "type": "uint256"
                }
            ],
            "name": "deleteTask",
            "outputs": [],
            "stateMutability": "nonpayable",
            "type": "function"
        },
        {
            "inputs": [],
            "name": "getTask",
            "outputs": [
                {
                    "components": [
                        {
                            "internalType": "string",
                            "name": "task",
                            "type": "string"
                        },
                        {
                            "internalType": "bool",
                            "name": "isDone",
                            "type": "bool"
                        }
                    ],
                    "internalType": "struct Todo.Task[]",
                    "name": "",
                    "type": "tuple[]"
                }
            ],
            "stateMutability": "view",
            "type": "function"
        },
        {
            "inputs": [
                {
                    "internalType": "uint256",
                    "name": "_taskIndex",
                    "type": "uint256"
                }
            ],
            "name": "updateTaskStatus",
            "outputs": [],
            "stateMutability": "nonpayable",
            "type": "function"
        }
    ],
    "bytecode": "0x608060405234801561001057600080fd5b50610abb806100206000396000f3fe608060405234801561001057600080fd5b506004361061004c5760003560e01c8063111002aa14610051578063560f31921461006d578063a31662d214610089578063c02bc162146100a7575b600080fd5b61006b60048036038101906100669190610785565b6100c3565b005b61008760048036038101906100829190610804565b610184565b005b61009161020c565b60405161009e91906109d3565b60405180910390f35b6100c160048036038101906100bc9190610804565b610354565b005b6000803373ffffffffffffffffffffffffffffffffffffffff1673ffffffffffffffffffffffffffffffffffffffff1681526020019081526020016000206040518060400160405280838152602001600015158152509080600181540180825580915050600190039060005260206000209060020201600090919091909150600082015181600001908051906020019061015e929190610548565b5060208201518160010160006101000a81548160ff021916908315150217905550505050565b6000803373ffffffffffffffffffffffffffffffffffffffff1673ffffffffffffffffffffffffffffffffffffffff16815260200190815260200160002081815481106101d4576101d36109f5565b5b9060005260206000209060020201600080820160006101f391906105ce565b6001820160006101000a81549060ff0219169055505050565b60606000803373ffffffffffffffffffffffffffffffffffffffff1673ffffffffffffffffffffffffffffffffffffffff168152602001908152602001600020805480602002602001604051908101604052809291908181526020016000905b8282101561034b578382906000526020600020906002020160405180604001604052908160008201805461029f90610a53565b80601f01602080910402602001604051908101604052809291908181526020018280546102cb90610a53565b80156103185780601f106102ed57610100808354040283529160200191610318565b820191906000526020600020905b8154815290600101906020018083116102fb57829003601f168201915b505050505081526020016001820160009054906101000a900460ff1615151515815250508152602001906001019061026c565b50505050905090565b600115156000803373ffffffffffffffffffffffffffffffffffffffff1673ffffffffffffffffffffffffffffffffffffffff16815260200190815260200160002082815481106103a8576103a76109f5565b5b906000526020600020906002020160010160009054906101000a900460ff161515141561044e5760008060003373ffffffffffffffffffffffffffffffffffffffff1673ffffffffffffffffffffffffffffffffffffffff1681526020019081526020016000208281548110610421576104206109f5565b5b906000526020600020906002020160010160006101000a81548160ff021916908315150217905550610545565b600015156000803373ffffffffffffffffffffffffffffffffffffffff1673ffffffffffffffffffffffffffffffffffffffff16815260200190815260200160002082815481106104a2576104a16109f5565b5b906000526020600020906002020160010160009054906101000a900460ff16151514156105445760016000803373ffffffffffffffffffffffffffffffffffffffff1673ffffffffffffffffffffffffffffffffffffffff168152602001908152602001600020828154811061051b5761051a6109f5565b5b906000526020600020906002020160010160006101000a81548160ff0219169083151502179055505b5b50565b82805461055490610a53565b90600052602060002090601f01602090048101928261057657600085556105bd565b82601f1061058f57805160ff19168380011785556105bd565b828001600101855582156105bd579182015b828111156105bc5782518255916020019190600101906105a1565b5b5090506105ca919061060e565b5090565b5080546105da90610a53565b6000825580601f106105ec575061060b565b601f01602090049060005260206000209081019061060a919061060e565b5b50565b5b8082111561062757600081600090555060010161060f565b5090565b6000604051905090565b600080fd5b600080fd5b600080fd5b600080fd5b6000601f19601f8301169050919050565b7f4e487b7100000000000000000000000000000000000000000000000000000000600052604160045260246000fd5b61069282610649565b810181811067ffffffffffffffff821117156106b1576106b061065a565b5b80604052505050565b60006106c461062b565b90506106d08282610689565b919050565b600067ffffffffffffffff8211156106f0576106ef61065a565b5b6106f982610649565b9050602081019050919050565b82818337600083830152505050565b6000610728610723846106d5565b6106ba565b90508281526020810184848401111561074457610743610644565b5b61074f848285610706565b509392505050565b600082601f83011261076c5761076b61063f565b5b813561077c848260208601610715565b91505092915050565b60006020828403121561079b5761079a610635565b5b600082013567ffffffffffffffff8111156107b9576107b861063a565b5b6107c584828501610757565b91505092915050565b6000819050919050565b6107e1816107ce565b81146107ec57600080fd5b50565b6000813590506107fe816107d8565b92915050565b60006020828403121561081a57610819610635565b5b6000610828848285016107ef565b91505092915050565b600081519050919050565b600082825260208201905092915050565b6000819050602082019050919050565b600081519050919050565b600082825260208201905092915050565b60005b8381101561089757808201518184015260208101905061087c565b838111156108a6576000848401525b50505050565b60006108b78261085d565b6108c18185610868565b93506108d1818560208601610879565b6108da81610649565b840191505092915050565b60008115159050919050565b6108fa816108e5565b82525050565b6000604083016000830151848203600086015261091d82826108ac565b915050602083015161093260208601826108f1565b508091505092915050565b60006109498383610900565b905092915050565b6000602082019050919050565b600061096982610831565b610973818561083c565b9350836020820285016109858561084d565b8060005b858110156109c157848403895281516109a2858261093d565b94506109ad83610951565b925060208a01995050600181019050610989565b50829750879550505050505092915050565b600060208201905081810360008301526109ed818461095e565b905092915050565b7f4e487b7100000000000000000000000000000000000000000000000000000000600052603260045260246000fd5b7f4e487b7100000000000000000000000000000000000000000000000000000000600052602260045260246000fd5b60006002820490506001821680610a6b57607f821691505b60208210811415610a7f57610a7e610a24565b5b5091905056fea2646970667358221220c57ae435419bbc674b5ffbb3a0e311bef69519532c903a6d2fdf25b23b71e5ca64736f6c63430008090033",
    "linkReferences": {},
    "deployedLinkReferences": {}
}